{
  "_format": "hh-sol-artifact-1",
  "contractName": "PdfNFT",
  "sourceName": "contracts/pdfNft.sol",
  "abi": [
    {
      "inputs": [],
      "stateMutability": "nonpayable",
      "type": "constructor"
    },
    {
      "anonymous": false,
      "inputs": [
        {
          "indexed": true,
          "internalType": "address",
          "name": "owner",
          "type": "address"
        },
        {
          "indexed": true,
          "internalType": "address",
          "name": "approved",
          "type": "address"
        },
        {
          "indexed": true,
          "internalType": "uint256",
          "name": "tokenId",
          "type": "uint256"
        }
      ],
      "name": "Approval",
      "type": "event"
    },
    {
      "anonymous": false,
      "inputs": [
        {
          "indexed": true,
          "internalType": "address",
          "name": "owner",
          "type": "address"
        },
        {
          "indexed": true,
          "internalType": "address",
          "name": "operator",
          "type": "address"
        },
        {
          "indexed": false,
          "internalType": "bool",
          "name": "approved",
          "type": "bool"
        }
      ],
      "name": "ApprovalForAll",
      "type": "event"
    },
    {
      "anonymous": false,
      "inputs": [
        {
          "indexed": true,
          "internalType": "address",
          "name": "previousOwner",
          "type": "address"
        },
        {
          "indexed": true,
          "internalType": "address",
          "name": "newOwner",
          "type": "address"
        }
      ],
      "name": "OwnershipTransferred",
      "type": "event"
    },
    {
      "anonymous": false,
      "inputs": [
        {
          "indexed": true,
          "internalType": "address",
          "name": "from",
          "type": "address"
        },
        {
          "indexed": true,
          "internalType": "address",
          "name": "to",
          "type": "address"
        },
        {
          "indexed": true,
          "internalType": "uint256",
          "name": "tokenId",
          "type": "uint256"
        }
      ],
      "name": "Transfer",
      "type": "event"
    },
    {
      "inputs": [
        {
          "internalType": "address",
          "name": "to",
          "type": "address"
        },
        {
          "internalType": "uint256",
          "name": "tokenId",
          "type": "uint256"
        }
      ],
      "name": "approve",
      "outputs": [],
      "stateMutability": "nonpayable",
      "type": "function"
    },
    {
      "inputs": [
        {
          "internalType": "address",
          "name": "owner",
          "type": "address"
        }
      ],
      "name": "balanceOf",
      "outputs": [
        {
          "internalType": "uint256",
          "name": "",
          "type": "uint256"
        }
      ],
      "stateMutability": "view",
      "type": "function"
    },
    {
      "inputs": [
        {
          "internalType": "address",
          "name": "receiver",
          "type": "address"
        },
        {
          "internalType": "string",
          "name": "tokenURI",
          "type": "string"
        }
      ],
      "name": "createNFT",
      "outputs": [
        {
          "internalType": "uint256",
          "name": "",
          "type": "uint256"
        }
      ],
      "stateMutability": "nonpayable",
      "type": "function"
    },
    {
      "inputs": [
        {
          "internalType": "uint256",
          "name": "tokenId",
          "type": "uint256"
        }
      ],
      "name": "getApproved",
      "outputs": [
        {
          "internalType": "address",
          "name": "",
          "type": "address"
        }
      ],
      "stateMutability": "view",
      "type": "function"
    },
    {
      "inputs": [
        {
          "internalType": "address",
          "name": "owner",
          "type": "address"
        },
        {
          "internalType": "address",
          "name": "operator",
          "type": "address"
        }
      ],
      "name": "isApprovedForAll",
      "outputs": [
        {
          "internalType": "bool",
          "name": "",
          "type": "bool"
        }
      ],
      "stateMutability": "view",
      "type": "function"
    },
    {
      "inputs": [],
      "name": "name",
      "outputs": [
        {
          "internalType": "string",
          "name": "",
          "type": "string"
        }
      ],
      "stateMutability": "view",
      "type": "function"
    },
    {
      "inputs": [],
      "name": "owner",
      "outputs": [
        {
          "internalType": "address",
          "name": "",
          "type": "address"
        }
      ],
      "stateMutability": "view",
      "type": "function"
    },
    {
      "inputs": [
        {
          "internalType": "uint256",
          "name": "tokenId",
          "type": "uint256"
        }
      ],
      "name": "ownerOf",
      "outputs": [
        {
          "internalType": "address",
          "name": "",
          "type": "address"
        }
      ],
      "stateMutability": "view",
      "type": "function"
    },
    {
      "inputs": [],
      "name": "renounceOwnership",
      "outputs": [],
      "stateMutability": "nonpayable",
      "type": "function"
    },
    {
      "inputs": [
        {
          "internalType": "address",
          "name": "from",
          "type": "address"
        },
        {
          "internalType": "address",
          "name": "to",
          "type": "address"
        },
        {
          "internalType": "uint256",
          "name": "tokenId",
          "type": "uint256"
        }
      ],
      "name": "safeTransferFrom",
      "outputs": [],
      "stateMutability": "nonpayable",
      "type": "function"
    },
    {
      "inputs": [
        {
          "internalType": "address",
          "name": "from",
          "type": "address"
        },
        {
          "internalType": "address",
          "name": "to",
          "type": "address"
        },
        {
          "internalType": "uint256",
          "name": "tokenId",
          "type": "uint256"
        },
        {
          "internalType": "bytes",
          "name": "_data",
          "type": "bytes"
        }
      ],
      "name": "safeTransferFrom",
      "outputs": [],
      "stateMutability": "nonpayable",
      "type": "function"
    },
    {
      "inputs": [
        {
          "internalType": "address",
          "name": "operator",
          "type": "address"
        },
        {
          "internalType": "bool",
          "name": "approved",
          "type": "bool"
        }
      ],
      "name": "setApprovalForAll",
      "outputs": [],
      "stateMutability": "nonpayable",
      "type": "function"
    },
    {
      "inputs": [
        {
          "internalType": "bytes4",
          "name": "interfaceId",
          "type": "bytes4"
        }
      ],
      "name": "supportsInterface",
      "outputs": [
        {
          "internalType": "bool",
          "name": "",
          "type": "bool"
        }
      ],
      "stateMutability": "view",
      "type": "function"
    },
    {
      "inputs": [],
      "name": "symbol",
      "outputs": [
        {
          "internalType": "string",
          "name": "",
          "type": "string"
        }
      ],
      "stateMutability": "view",
      "type": "function"
    },
    {
      "inputs": [
        {
          "internalType": "uint256",
          "name": "tokenId",
          "type": "uint256"
        }
      ],
      "name": "tokenURI",
      "outputs": [
        {
          "internalType": "string",
          "name": "",
          "type": "string"
        }
      ],
      "stateMutability": "view",
      "type": "function"
    },
    {
      "inputs": [
        {
          "internalType": "address",
          "name": "from",
          "type": "address"
        },
        {
          "internalType": "address",
          "name": "to",
          "type": "address"
        },
        {
          "internalType": "uint256",
          "name": "tokenId",
          "type": "uint256"
        }
      ],
      "name": "transferFrom",
      "outputs": [],
      "stateMutability": "nonpayable",
      "type": "function"
    },
    {
      "inputs": [
        {
          "internalType": "address",
          "name": "newOwner",
          "type": "address"
        }
      ],
      "name": "transferOwnership",
      "outputs": [],
      "stateMutability": "nonpayable",
      "type": "function"
    }
  ],
  "bytecode": "0x60806040523480156200001157600080fd5b506040518060400160405280600981526020017f53616d706c6550444600000000000000000000000000000000000000000000008152506040518060400160405280600281526020017f535000000000000000000000000000000000000000000000000000000000000081525081600090816200008f9190620003dd565b508060019081620000a19190620003dd565b5050506000620000b66200015b60201b60201c565b905080600760006101000a81548173ffffffffffffffffffffffffffffffffffffffff021916908373ffffffffffffffffffffffffffffffffffffffff1602179055508073ffffffffffffffffffffffffffffffffffffffff16600073ffffffffffffffffffffffffffffffffffffffff167f8be0079c531659141344cd1fd0a4f28419497f9722a3daafe3b4186f6b6457e060405160405180910390a350620004c4565b600033905090565b600081519050919050565b7f4e487b7100000000000000000000000000000000000000000000000000000000600052604160045260246000fd5b7f4e487b7100000000000000000000000000000000000000000000000000000000600052602260045260246000fd5b60006002820490506001821680620001e557607f821691505b602082108103620001fb57620001fa6200019d565b5b50919050565b60008190508160005260206000209050919050565b60006020601f8301049050919050565b600082821b905092915050565b600060088302620002657fffffffffffffffffffffffffffffffffffffffffffffffffffffffffffffffff8262000226565b62000271868362000226565b95508019841693508086168417925050509392505050565b6000819050919050565b6000819050919050565b6000620002be620002b8620002b28462000289565b62000293565b62000289565b9050919050565b6000819050919050565b620002da836200029d565b620002f2620002e982620002c5565b84845462000233565b825550505050565b600090565b62000309620002fa565b62000316818484620002cf565b505050565b5b818110156200033e5762000332600082620002ff565b6001810190506200031c565b5050565b601f8211156200038d57620003578162000201565b620003628462000216565b8101602085101562000372578190505b6200038a620003818562000216565b8301826200031b565b50505b505050565b600082821c905092915050565b6000620003b26000198460080262000392565b1980831691505092915050565b6000620003cd83836200039f565b9150826002028217905092915050565b620003e88262000163565b67ffffffffffffffff8111156200040457620004036200016e565b5b620004108254620001cc565b6200041d82828562000342565b600060209050601f83116001811462000455576000841562000440578287015190505b6200044c8582620003bf565b865550620004bc565b601f198416620004658662000201565b60005b828110156200048f5784890151825560018201915060208501945060208101905062000468565b86831015620004af5784890151620004ab601f8916826200039f565b8355505b6001600288020188555050505b505050505050565b61322380620004d46000396000f3fe608060405234801561001057600080fd5b506004361061010b5760003560e01c8063715018a6116100a2578063a561403311610071578063a5614033146102a4578063b88d4fde146102d4578063c87b56dd146102f0578063e985e9c514610320578063f2fde38b146103505761010b565b8063715018a6146102425780638da5cb5b1461024c57806395d89b411461026a578063a22cb465146102885761010b565b806323b872dd116100de57806323b872dd146101aa57806342842e0e146101c65780636352211e146101e257806370a08231146102125761010b565b806301ffc9a71461011057806306fdde0314610140578063081812fc1461015e578063095ea7b31461018e575b600080fd5b61012a60048036038101906101259190611c36565b61036c565b6040516101379190611c7e565b60405180910390f35b61014861044e565b6040516101559190611d29565b60405180910390f35b61017860048036038101906101739190611d81565b6104e0565b6040516101859190611def565b60405180910390f35b6101a860048036038101906101a39190611e36565b610565565b005b6101c460048036038101906101bf9190611e76565b61067c565b005b6101e060048036038101906101db9190611e76565b6106dc565b005b6101fc60048036038101906101f79190611d81565b6106fc565b6040516102099190611def565b60405180910390f35b61022c60048036038101906102279190611ec9565b6107ad565b6040516102399190611f05565b60405180910390f35b61024a610864565b005b6102546109a1565b6040516102619190611def565b60405180910390f35b6102726109cb565b60405161027f9190611d29565b60405180910390f35b6102a2600480360381019061029d9190611f4c565b610a5d565b005b6102be60048036038101906102b991906120c1565b610bdd565b6040516102cb9190611f05565b60405180910390f35b6102ee60048036038101906102e991906121be565b610c91565b005b61030a60048036038101906103059190611d81565b610cf3565b6040516103179190611d29565b60405180910390f35b61033a60048036038101906103359190612241565b610e44565b6040516103479190611c7e565b60405180910390f35b61036a60048036038101906103659190611ec9565b610ed8565b005b60007f80ac58cd000000000000000000000000000000000000000000000000000000007bffffffffffffffffffffffffffffffffffffffffffffffffffffffff1916827bffffffffffffffffffffffffffffffffffffffffffffffffffffffff1916148061043757507f5b5e139f000000000000000000000000000000000000000000000000000000007bffffffffffffffffffffffffffffffffffffffffffffffffffffffff1916827bffffffffffffffffffffffffffffffffffffffffffffffffffffffff1916145b80610447575061044682611083565b5b9050919050565b60606000805461045d906122b0565b80601f0160208091040260200160405190810160405280929190818152602001828054610489906122b0565b80156104d65780601f106104ab576101008083540402835291602001916104d6565b820191906000526020600020905b8154815290600101906020018083116104b957829003601f168201915b5050505050905090565b60006104eb826110ed565b61052a576040517f08c379a000000000000000000000000000000000000000000000000000000000815260040161052190612353565b60405180910390fd5b6004600083815260200190815260200160002060009054906101000a900473ffffffffffffffffffffffffffffffffffffffff169050919050565b6000610570826106fc565b90508073ffffffffffffffffffffffffffffffffffffffff168373ffffffffffffffffffffffffffffffffffffffff16036105e0576040517f08c379a00000000000000000000000000000000000000000000000000000000081526004016105d7906123e5565b60405180910390fd5b8073ffffffffffffffffffffffffffffffffffffffff166105ff611159565b73ffffffffffffffffffffffffffffffffffffffff16148061062e575061062d81610628611159565b610e44565b5b61066d576040517f08c379a000000000000000000000000000000000000000000000000000000000815260040161066490612477565b60405180910390fd5b6106778383611161565b505050565b61068d610687611159565b8261121a565b6106cc576040517f08c379a00000000000000000000000000000000000000000000000000000000081526004016106c390612509565b60405180910390fd5b6106d78383836112f8565b505050565b6106f783838360405180602001604052806000815250610c91565b505050565b6000806002600084815260200190815260200160002060009054906101000a900473ffffffffffffffffffffffffffffffffffffffff169050600073ffffffffffffffffffffffffffffffffffffffff168173ffffffffffffffffffffffffffffffffffffffff16036107a4576040517f08c379a000000000000000000000000000000000000000000000000000000000815260040161079b9061259b565b60405180910390fd5b80915050919050565b60008073ffffffffffffffffffffffffffffffffffffffff168273ffffffffffffffffffffffffffffffffffffffff160361081d576040517f08c379a00000000000000000000000000000000000000000000000000000000081526004016108149061262d565b60405180910390fd5b600360008373ffffffffffffffffffffffffffffffffffffffff1673ffffffffffffffffffffffffffffffffffffffff168152602001908152602001600020549050919050565b61086c611159565b73ffffffffffffffffffffffffffffffffffffffff1661088a6109a1565b73ffffffffffffffffffffffffffffffffffffffff16146108e0576040517f08c379a00000000000000000000000000000000000000000000000000000000081526004016108d790612699565b60405180910390fd5b600073ffffffffffffffffffffffffffffffffffffffff16600760009054906101000a900473ffffffffffffffffffffffffffffffffffffffff1673ffffffffffffffffffffffffffffffffffffffff167f8be0079c531659141344cd1fd0a4f28419497f9722a3daafe3b4186f6b6457e060405160405180910390a36000600760006101000a81548173ffffffffffffffffffffffffffffffffffffffff021916908373ffffffffffffffffffffffffffffffffffffffff160217905550565b6000600760009054906101000a900473ffffffffffffffffffffffffffffffffffffffff16905090565b6060600180546109da906122b0565b80601f0160208091040260200160405190810160405280929190818152602001828054610a06906122b0565b8015610a535780601f10610a2857610100808354040283529160200191610a53565b820191906000526020600020905b815481529060010190602001808311610a3657829003601f168201915b5050505050905090565b610a65611159565b73ffffffffffffffffffffffffffffffffffffffff168273ffffffffffffffffffffffffffffffffffffffff1603610ad2576040517f08c379a0000000000000000000000000000000000000000000000000000000008152600401610ac990612705565b60405180910390fd5b8060056000610adf611159565b73ffffffffffffffffffffffffffffffffffffffff1673ffffffffffffffffffffffffffffffffffffffff16815260200190815260200160002060008473ffffffffffffffffffffffffffffffffffffffff1673ffffffffffffffffffffffffffffffffffffffff16815260200190815260200160002060006101000a81548160ff0219169083151502179055508173ffffffffffffffffffffffffffffffffffffffff16610b8c611159565b73ffffffffffffffffffffffffffffffffffffffff167f17307eab39ab6107e8899845ad3d59bd9653f200f220920489ca2b5937696c3183604051610bd19190611c7e565b60405180910390a35050565b6000610be7611159565b73ffffffffffffffffffffffffffffffffffffffff16610c056109a1565b73ffffffffffffffffffffffffffffffffffffffff1614610c5b576040517f08c379a0000000000000000000000000000000000000000000000000000000008152600401610c5290612699565b60405180910390fd5b610c656008611553565b6000610c716008611569565b9050610c7d8482611577565b610c878184611744565b8091505092915050565b610ca2610c9c611159565b8361121a565b610ce1576040517f08c379a0000000000000000000000000000000000000000000000000000000008152600401610cd890612509565b60405180910390fd5b610ced848484846117b1565b50505050565b6060610cfe826110ed565b610d3d576040517f08c379a0000000000000000000000000000000000000000000000000000000008152600401610d3490612797565b60405180910390fd5b6000600660008481526020019081526020016000208054610d5d906122b0565b80601f0160208091040260200160405190810160405280929190818152602001828054610d89906122b0565b8015610dd65780601f10610dab57610100808354040283529160200191610dd6565b820191906000526020600020905b815481529060010190602001808311610db957829003601f168201915b505050505090506000610de761180d565b90506000815103610dfc578192505050610e3f565b600082511115610e31578082604051602001610e199291906127f3565b60405160208183030381529060405292505050610e3f565b610e3a84611824565b925050505b919050565b6000600560008473ffffffffffffffffffffffffffffffffffffffff1673ffffffffffffffffffffffffffffffffffffffff16815260200190815260200160002060008373ffffffffffffffffffffffffffffffffffffffff1673ffffffffffffffffffffffffffffffffffffffff16815260200190815260200160002060009054906101000a900460ff16905092915050565b610ee0611159565b73ffffffffffffffffffffffffffffffffffffffff16610efe6109a1565b73ffffffffffffffffffffffffffffffffffffffff1614610f54576040517f08c379a0000000000000000000000000000000000000000000000000000000008152600401610f4b90612699565b60405180910390fd5b600073ffffffffffffffffffffffffffffffffffffffff168173ffffffffffffffffffffffffffffffffffffffff1603610fc3576040517f08c379a0000000000000000000000000000000000000000000000000000000008152600401610fba90612889565b60405180910390fd5b8073ffffffffffffffffffffffffffffffffffffffff16600760009054906101000a900473ffffffffffffffffffffffffffffffffffffffff1673ffffffffffffffffffffffffffffffffffffffff167f8be0079c531659141344cd1fd0a4f28419497f9722a3daafe3b4186f6b6457e060405160405180910390a380600760006101000a81548173ffffffffffffffffffffffffffffffffffffffff021916908373ffffffffffffffffffffffffffffffffffffffff16021790555050565b60007f01ffc9a7000000000000000000000000000000000000000000000000000000007bffffffffffffffffffffffffffffffffffffffffffffffffffffffff1916827bffffffffffffffffffffffffffffffffffffffffffffffffffffffff1916149050919050565b60008073ffffffffffffffffffffffffffffffffffffffff166002600084815260200190815260200160002060009054906101000a900473ffffffffffffffffffffffffffffffffffffffff1673ffffffffffffffffffffffffffffffffffffffff1614159050919050565b600033905090565b816004600083815260200190815260200160002060006101000a81548173ffffffffffffffffffffffffffffffffffffffff021916908373ffffffffffffffffffffffffffffffffffffffff160217905550808273ffffffffffffffffffffffffffffffffffffffff166111d4836106fc565b73ffffffffffffffffffffffffffffffffffffffff167f8c5be1e5ebec7d5bd14f71427d1e84f3dd0314c0f7b2291e5b200ac8c7c3b92560405160405180910390a45050565b6000611225826110ed565b611264576040517f08c379a000000000000000000000000000000000000000000000000000000000815260040161125b9061291b565b60405180910390fd5b600061126f836106fc565b90508073ffffffffffffffffffffffffffffffffffffffff168473ffffffffffffffffffffffffffffffffffffffff1614806112de57508373ffffffffffffffffffffffffffffffffffffffff166112c6846104e0565b73ffffffffffffffffffffffffffffffffffffffff16145b806112ef57506112ee8185610e44565b5b91505092915050565b8273ffffffffffffffffffffffffffffffffffffffff16611318826106fc565b73ffffffffffffffffffffffffffffffffffffffff161461136e576040517f08c379a0000000000000000000000000000000000000000000000000000000008152600401611365906129ad565b60405180910390fd5b600073ffffffffffffffffffffffffffffffffffffffff168273ffffffffffffffffffffffffffffffffffffffff16036113dd576040517f08c379a00000000000000000000000000000000000000000000000000000000081526004016113d490612a3f565b60405180910390fd5b6113e88383836118cb565b6113f3600082611161565b6001600360008573ffffffffffffffffffffffffffffffffffffffff1673ffffffffffffffffffffffffffffffffffffffff16815260200190815260200160002060008282546114439190612a8e565b925050819055506001600360008473ffffffffffffffffffffffffffffffffffffffff1673ffffffffffffffffffffffffffffffffffffffff168152602001908152602001600020600082825461149a9190612ac2565b92505081905550816002600083815260200190815260200160002060006101000a81548173ffffffffffffffffffffffffffffffffffffffff021916908373ffffffffffffffffffffffffffffffffffffffff160217905550808273ffffffffffffffffffffffffffffffffffffffff168473ffffffffffffffffffffffffffffffffffffffff167fddf252ad1be2c89b69c2b068fc378daa952ba7f163c4a11628f55a4df523b3ef60405160405180910390a4505050565b6001816000016000828254019250508190555050565b600081600001549050919050565b600073ffffffffffffffffffffffffffffffffffffffff168273ffffffffffffffffffffffffffffffffffffffff16036115e6576040517f08c379a00000000000000000000000000000000000000000000000000000000081526004016115dd90612b42565b60405180910390fd5b6115ef816110ed565b1561162f576040517f08c379a000000000000000000000000000000000000000000000000000000000815260040161162690612bae565b60405180910390fd5b61163b600083836118cb565b6001600360008473ffffffffffffffffffffffffffffffffffffffff1673ffffffffffffffffffffffffffffffffffffffff168152602001908152602001600020600082825461168b9190612ac2565b92505081905550816002600083815260200190815260200160002060006101000a81548173ffffffffffffffffffffffffffffffffffffffff021916908373ffffffffffffffffffffffffffffffffffffffff160217905550808273ffffffffffffffffffffffffffffffffffffffff16600073ffffffffffffffffffffffffffffffffffffffff167fddf252ad1be2c89b69c2b068fc378daa952ba7f163c4a11628f55a4df523b3ef60405160405180910390a45050565b61174d826110ed565b61178c576040517f08c379a000000000000000000000000000000000000000000000000000000000815260040161178390612c40565b60405180910390fd5b806006600084815260200190815260200160002090816117ac9190612e0c565b505050565b6117bc8484846112f8565b6117c8848484846118d0565b611807576040517f08c379a00000000000000000000000000000000000000000000000000000000081526004016117fe90612f50565b60405180910390fd5b50505050565b606060405180602001604052806000815250905090565b606061182f826110ed565b61186e576040517f08c379a000000000000000000000000000000000000000000000000000000000815260040161186590612fe2565b60405180910390fd5b600061187861180d565b9050600081511161189857604051806020016040528060008152506118c3565b806118a284611a57565b6040516020016118b39291906127f3565b6040516020818303038152906040525b915050919050565b505050565b60006118f18473ffffffffffffffffffffffffffffffffffffffff16611bb7565b15611a4a578373ffffffffffffffffffffffffffffffffffffffff1663150b7a0261191a611159565b8786866040518563ffffffff1660e01b815260040161193c9493929190613057565b6020604051808303816000875af192505050801561197857506040513d601f19601f8201168201806040525081019061197591906130b8565b60015b6119fa573d80600081146119a8576040519150601f19603f3d011682016040523d82523d6000602084013e6119ad565b606091505b5060008151036119f2576040517f08c379a00000000000000000000000000000000000000000000000000000000081526004016119e990612f50565b60405180910390fd5b805181602001fd5b63150b7a0260e01b7bffffffffffffffffffffffffffffffffffffffffffffffffffffffff1916817bffffffffffffffffffffffffffffffffffffffffffffffffffffffff191614915050611a4f565b600190505b949350505050565b606060008203611a9e576040518060400160405280600181526020017f30000000000000000000000000000000000000000000000000000000000000008152509050611bb2565b600082905060005b60008214611ad0578080611ab9906130e5565b915050600a82611ac9919061315c565b9150611aa6565b60008167ffffffffffffffff811115611aec57611aeb611f96565b5b6040519080825280601f01601f191660200182016040528015611b1e5781602001600182028036833780820191505090505b5090505b60008514611bab57600182611b379190612a8e565b9150600a85611b46919061318d565b6030611b529190612ac2565b60f81b818381518110611b6857611b676131be565b5b60200101907effffffffffffffffffffffffffffffffffffffffffffffffffffffffffffff1916908160001a905350600a85611ba4919061315c565b9450611b22565b8093505050505b919050565b600080823b905060008111915050919050565b6000604051905090565b600080fd5b600080fd5b60007fffffffff0000000000000000000000000000000000000000000000000000000082169050919050565b611c1381611bde565b8114611c1e57600080fd5b50565b600081359050611c3081611c0a565b92915050565b600060208284031215611c4c57611c4b611bd4565b5b6000611c5a84828501611c21565b91505092915050565b60008115159050919050565b611c7881611c63565b82525050565b6000602082019050611c936000830184611c6f565b92915050565b600081519050919050565b600082825260208201905092915050565b60005b83811015611cd3578082015181840152602081019050611cb8565b60008484015250505050565b6000601f19601f8301169050919050565b6000611cfb82611c99565b611d058185611ca4565b9350611d15818560208601611cb5565b611d1e81611cdf565b840191505092915050565b60006020820190508181036000830152611d438184611cf0565b905092915050565b6000819050919050565b611d5e81611d4b565b8114611d6957600080fd5b50565b600081359050611d7b81611d55565b92915050565b600060208284031215611d9757611d96611bd4565b5b6000611da584828501611d6c565b91505092915050565b600073ffffffffffffffffffffffffffffffffffffffff82169050919050565b6000611dd982611dae565b9050919050565b611de981611dce565b82525050565b6000602082019050611e046000830184611de0565b92915050565b611e1381611dce565b8114611e1e57600080fd5b50565b600081359050611e3081611e0a565b92915050565b60008060408385031215611e4d57611e4c611bd4565b5b6000611e5b85828601611e21565b9250506020611e6c85828601611d6c565b9150509250929050565b600080600060608486031215611e8f57611e8e611bd4565b5b6000611e9d86828701611e21565b9350506020611eae86828701611e21565b9250506040611ebf86828701611d6c565b9150509250925092565b600060208284031215611edf57611ede611bd4565b5b6000611eed84828501611e21565b91505092915050565b611eff81611d4b565b82525050565b6000602082019050611f1a6000830184611ef6565b92915050565b611f2981611c63565b8114611f3457600080fd5b50565b600081359050611f4681611f20565b92915050565b60008060408385031215611f6357611f62611bd4565b5b6000611f7185828601611e21565b9250506020611f8285828601611f37565b9150509250929050565b600080fd5b600080fd5b7f4e487b7100000000000000000000000000000000000000000000000000000000600052604160045260246000fd5b611fce82611cdf565b810181811067ffffffffffffffff82111715611fed57611fec611f96565b5b80604052505050565b6000612000611bca565b905061200c8282611fc5565b919050565b600067ffffffffffffffff82111561202c5761202b611f96565b5b61203582611cdf565b9050602081019050919050565b82818337600083830152505050565b600061206461205f84612011565b611ff6565b9050828152602081018484840111156120805761207f611f91565b5b61208b848285612042565b509392505050565b600082601f8301126120a8576120a7611f8c565b5b81356120b8848260208601612051565b91505092915050565b600080604083850312156120d8576120d7611bd4565b5b60006120e685828601611e21565b925050602083013567ffffffffffffffff81111561210757612106611bd9565b5b61211385828601612093565b9150509250929050565b600067ffffffffffffffff82111561213857612137611f96565b5b61214182611cdf565b9050602081019050919050565b600061216161215c8461211d565b611ff6565b90508281526020810184848401111561217d5761217c611f91565b5b612188848285612042565b509392505050565b600082601f8301126121a5576121a4611f8c565b5b81356121b584826020860161214e565b91505092915050565b600080600080608085870312156121d8576121d7611bd4565b5b60006121e687828801611e21565b94505060206121f787828801611e21565b935050604061220887828801611d6c565b925050606085013567ffffffffffffffff81111561222957612228611bd9565b5b61223587828801612190565b91505092959194509250565b6000806040838503121561225857612257611bd4565b5b600061226685828601611e21565b925050602061227785828601611e21565b9150509250929050565b7f4e487b7100000000000000000000000000000000000000000000000000000000600052602260045260246000fd5b600060028204905060018216806122c857607f821691505b6020821081036122db576122da612281565b5b50919050565b7f4552433732313a20617070726f76656420717565727920666f72206e6f6e657860008201527f697374656e7420746f6b656e0000000000000000000000000000000000000000602082015250565b600061233d602c83611ca4565b9150612348826122e1565b604082019050919050565b6000602082019050818103600083015261236c81612330565b9050919050565b7f4552433732313a20617070726f76616c20746f2063757272656e74206f776e6560008201527f7200000000000000000000000000000000000000000000000000000000000000602082015250565b60006123cf602183611ca4565b91506123da82612373565b604082019050919050565b600060208201905081810360008301526123fe816123c2565b9050919050565b7f4552433732313a20617070726f76652063616c6c6572206973206e6f74206f7760008201527f6e6572206e6f7220617070726f76656420666f7220616c6c0000000000000000602082015250565b6000612461603883611ca4565b915061246c82612405565b604082019050919050565b6000602082019050818103600083015261249081612454565b9050919050565b7f4552433732313a207472616e736665722063616c6c6572206973206e6f74206f60008201527f776e6572206e6f7220617070726f766564000000000000000000000000000000602082015250565b60006124f3603183611ca4565b91506124fe82612497565b604082019050919050565b60006020820190508181036000830152612522816124e6565b9050919050565b7f4552433732313a206f776e657220717565727920666f72206e6f6e657869737460008201527f656e7420746f6b656e0000000000000000000000000000000000000000000000602082015250565b6000612585602983611ca4565b915061259082612529565b604082019050919050565b600060208201905081810360008301526125b481612578565b9050919050565b7f4552433732313a2062616c616e636520717565727920666f7220746865207a6560008201527f726f206164647265737300000000000000000000000000000000000000000000602082015250565b6000612617602a83611ca4565b9150612622826125bb565b604082019050919050565b600060208201905081810360008301526126468161260a565b9050919050565b7f4f776e61626c653a2063616c6c6572206973206e6f7420746865206f776e6572600082015250565b6000612683602083611ca4565b915061268e8261264d565b602082019050919050565b600060208201905081810360008301526126b281612676565b9050919050565b7f4552433732313a20617070726f766520746f2063616c6c657200000000000000600082015250565b60006126ef601983611ca4565b91506126fa826126b9565b602082019050919050565b6000602082019050818103600083015261271e816126e2565b9050919050565b7f45524337323155524953746f726167653a2055524920717565727920666f722060008201527f6e6f6e6578697374656e7420746f6b656e000000000000000000000000000000602082015250565b6000612781603183611ca4565b915061278c82612725565b604082019050919050565b600060208201905081810360008301526127b081612774565b9050919050565b600081905092915050565b60006127cd82611c99565b6127d781856127b7565b93506127e7818560208601611cb5565b80840191505092915050565b60006127ff82856127c2565b915061280b82846127c2565b91508190509392505050565b7f4f776e61626c653a206e6577206f776e657220697320746865207a65726f206160008201527f6464726573730000000000000000000000000000000000000000000000000000602082015250565b6000612873602683611ca4565b915061287e82612817565b604082019050919050565b600060208201905081810360008301526128a281612866565b9050919050565b7f4552433732313a206f70657261746f7220717565727920666f72206e6f6e657860008201527f697374656e7420746f6b656e0000000000000000000000000000000000000000602082015250565b6000612905602c83611ca4565b9150612910826128a9565b604082019050919050565b60006020820190508181036000830152612934816128f8565b9050919050565b7f4552433732313a207472616e73666572206f6620746f6b656e2074686174206960008201527f73206e6f74206f776e0000000000000000000000000000000000000000000000602082015250565b6000612997602983611ca4565b91506129a28261293b565b604082019050919050565b600060208201905081810360008301526129c68161298a565b9050919050565b7f4552433732313a207472616e7366657220746f20746865207a65726f2061646460008201527f7265737300000000000000000000000000000000000000000000000000000000602082015250565b6000612a29602483611ca4565b9150612a34826129cd565b604082019050919050565b60006020820190508181036000830152612a5881612a1c565b9050919050565b7f4e487b7100000000000000000000000000000000000000000000000000000000600052601160045260246000fd5b6000612a9982611d4b565b9150612aa483611d4b565b9250828203905081811115612abc57612abb612a5f565b5b92915050565b6000612acd82611d4b565b9150612ad883611d4b565b9250828201905080821115612af057612aef612a5f565b5b92915050565b7f4552433732313a206d696e7420746f20746865207a65726f2061646472657373600082015250565b6000612b2c602083611ca4565b9150612b3782612af6565b602082019050919050565b60006020820190508181036000830152612b5b81612b1f565b9050919050565b7f4552433732313a20746f6b656e20616c7265616479206d696e74656400000000600082015250565b6000612b98601c83611ca4565b9150612ba382612b62565b602082019050919050565b60006020820190508181036000830152612bc781612b8b565b9050919050565b7f45524337323155524953746f726167653a2055524920736574206f66206e6f6e60008201527f6578697374656e7420746f6b656e000000000000000000000000000000000000602082015250565b6000612c2a602e83611ca4565b9150612c3582612bce565b604082019050919050565b60006020820190508181036000830152612c5981612c1d565b9050919050565b60008190508160005260206000209050919050565b60006020601f8301049050919050565b600082821b905092915050565b600060088302612cc27fffffffffffffffffffffffffffffffffffffffffffffffffffffffffffffffff82612c85565b612ccc8683612c85565b95508019841693508086168417925050509392505050565b6000819050919050565b6000612d09612d04612cff84611d4b565b612ce4565b611d4b565b9050919050565b6000819050919050565b612d2383612cee565b612d37612d2f82612d10565b848454612c92565b825550505050565b600090565b612d4c612d3f565b612d57818484612d1a565b505050565b5b81811015612d7b57612d70600082612d44565b600181019050612d5d565b5050565b601f821115612dc057612d9181612c60565b612d9a84612c75565b81016020851015612da9578190505b612dbd612db585612c75565b830182612d5c565b50505b505050565b600082821c905092915050565b6000612de360001984600802612dc5565b1980831691505092915050565b6000612dfc8383612dd2565b9150826002028217905092915050565b612e1582611c99565b67ffffffffffffffff811115612e2e57612e2d611f96565b5b612e3882546122b0565b612e43828285612d7f565b600060209050601f831160018114612e765760008415612e64578287015190505b612e6e8582612df0565b865550612ed6565b601f198416612e8486612c60565b60005b82811015612eac57848901518255600182019150602085019450602081019050612e87565b86831015612ec95784890151612ec5601f891682612dd2565b8355505b6001600288020188555050505b505050505050565b7f4552433732313a207472616e7366657220746f206e6f6e20455243373231526560008201527f63656976657220696d706c656d656e7465720000000000000000000000000000602082015250565b6000612f3a603283611ca4565b9150612f4582612ede565b604082019050919050565b60006020820190508181036000830152612f6981612f2d565b9050919050565b7f4552433732314d657461646174613a2055524920717565727920666f72206e6f60008201527f6e6578697374656e7420746f6b656e0000000000000000000000000000000000602082015250565b6000612fcc602f83611ca4565b9150612fd782612f70565b604082019050919050565b60006020820190508181036000830152612ffb81612fbf565b9050919050565b600081519050919050565b600082825260208201905092915050565b600061302982613002565b613033818561300d565b9350613043818560208601611cb5565b61304c81611cdf565b840191505092915050565b600060808201905061306c6000830187611de0565b6130796020830186611de0565b6130866040830185611ef6565b8181036060830152613098818461301e565b905095945050505050565b6000815190506130b281611c0a565b92915050565b6000602082840312156130ce576130cd611bd4565b5b60006130dc848285016130a3565b91505092915050565b60006130f082611d4b565b91507fffffffffffffffffffffffffffffffffffffffffffffffffffffffffffffffff820361312257613121612a5f565b5b600182019050919050565b7f4e487b7100000000000000000000000000000000000000000000000000000000600052601260045260246000fd5b600061316782611d4b565b915061317283611d4b565b9250826131825761318161312d565b5b828204905092915050565b600061319882611d4b565b91506131a383611d4b565b9250826131b3576131b261312d565b5b828206905092915050565b7f4e487b7100000000000000000000000000000000000000000000000000000000600052603260045260246000fdfea26469706673582212205827b97ead64b93ec8332a77f7fdb7a34d2f091b29828f67b348136456fe4bbf64736f6c63430008100033",
  "linkReferences": {},
  "deployedLinkReferences": {}
}